{
  "contractName": "KryptoBird",
  "abi": [
    {
      "inputs": [],
      "stateMutability": "nonpayable",
      "type": "constructor"
    },
    {
      "anonymous": false,
      "inputs": [
        {
          "indexed": true,
          "internalType": "address",
          "name": "_owner",
          "type": "address"
        },
        {
          "indexed": true,
          "internalType": "address",
          "name": "_approved",
          "type": "address"
        },
        {
          "indexed": true,
          "internalType": "uint256",
          "name": "_tokenId",
          "type": "uint256"
        }
      ],
      "name": "Approval",
      "type": "event"
    },
    {
      "anonymous": false,
      "inputs": [
        {
          "indexed": true,
          "internalType": "address",
          "name": "_from",
          "type": "address"
        },
        {
          "indexed": true,
          "internalType": "address",
          "name": "_to",
          "type": "address"
        },
        {
          "indexed": true,
          "internalType": "uint256",
          "name": "_tokenId",
          "type": "uint256"
        }
      ],
      "name": "Transfer",
      "type": "event"
    },
    {
      "inputs": [
        {
          "internalType": "address",
          "name": "_owner",
          "type": "address"
        }
      ],
      "name": "balanceOf",
      "outputs": [
        {
          "internalType": "uint256",
          "name": "",
          "type": "uint256"
        }
      ],
      "stateMutability": "view",
      "type": "function",
      "constant": true
    },
    {
      "inputs": [
        {
          "internalType": "uint256",
          "name": "",
          "type": "uint256"
        }
      ],
      "name": "kryptoBirdz",
      "outputs": [
        {
          "internalType": "string",
          "name": "",
          "type": "string"
        }
      ],
      "stateMutability": "view",
      "type": "function",
      "constant": true
    },
    {
      "inputs": [],
      "name": "name",
      "outputs": [
        {
          "internalType": "string",
          "name": "",
          "type": "string"
        }
      ],
      "stateMutability": "view",
      "type": "function",
      "constant": true
    },
    {
      "inputs": [
        {
          "internalType": "uint256",
          "name": "_tokenId",
          "type": "uint256"
        }
      ],
      "name": "ownerOf",
      "outputs": [
        {
          "internalType": "address",
          "name": "",
          "type": "address"
        }
      ],
      "stateMutability": "view",
      "type": "function",
      "constant": true
    },
    {
      "inputs": [
        {
          "internalType": "bytes4",
          "name": "interfaceID",
          "type": "bytes4"
        }
      ],
      "name": "supportsInterface",
      "outputs": [
        {
          "internalType": "bool",
          "name": "",
          "type": "bool"
        }
      ],
      "stateMutability": "view",
      "type": "function",
      "constant": true
    },
    {
      "inputs": [],
      "name": "symbol",
      "outputs": [
        {
          "internalType": "string",
          "name": "",
          "type": "string"
        }
      ],
      "stateMutability": "view",
      "type": "function",
      "constant": true
    },
    {
      "inputs": [
        {
          "internalType": "uint256",
          "name": "index",
          "type": "uint256"
        }
      ],
      "name": "tokenByIndex",
      "outputs": [
        {
          "internalType": "uint256",
          "name": "",
          "type": "uint256"
        }
      ],
      "stateMutability": "view",
      "type": "function",
      "constant": true
    },
    {
      "inputs": [
        {
          "internalType": "address",
          "name": "owner",
          "type": "address"
        },
        {
          "internalType": "uint256",
          "name": "index",
          "type": "uint256"
        }
      ],
      "name": "tokenOfOwnerByIndex",
      "outputs": [
        {
          "internalType": "uint256",
          "name": "",
          "type": "uint256"
        }
      ],
      "stateMutability": "view",
      "type": "function",
      "constant": true
    },
    {
      "inputs": [],
      "name": "totalSupply",
      "outputs": [
        {
          "internalType": "uint256",
          "name": "",
          "type": "uint256"
        }
      ],
      "stateMutability": "view",
      "type": "function",
      "constant": true
    },
    {
      "inputs": [
        {
          "internalType": "address",
          "name": "_from",
          "type": "address"
        },
        {
          "internalType": "address",
          "name": "_to",
          "type": "address"
        },
        {
          "internalType": "uint256",
          "name": "_tokenId",
          "type": "uint256"
        }
      ],
      "name": "transferFrom",
      "outputs": [],
      "stateMutability": "nonpayable",
      "type": "function"
    },
    {
      "inputs": [
        {
          "internalType": "string",
          "name": "_kryptoBird",
          "type": "string"
        }
      ],
      "name": "mint",
      "outputs": [],
      "stateMutability": "nonpayable",
      "type": "function"
    }
  ],
  "bytecode": "0x60806040523480156200001157600080fd5b506040518060400160405280600a81526020017f4b727962746f42697264000000000000000000000000000000000000000000008152506040518060400160405280600681526020017f4b424952445a00000000000000000000000000000000000000000000000000008152508181620000b17f01ffc9a7a5cef8baa21ed3c5c0d7e23accb804b619e9333b597f47a0d84076e26200022a60201b60201c565b620001047f6da5e1284143cdd2d15038a59bde3be031250f00291d64494c12d967b3a4e0c37fc53637662700e6c65104059db8bba34439e0c32483ab7c34e3ccae52c7395495186200022a60201b60201c565b81600190805190602001906200011c92919062000301565b5080600290805190602001906200013592919062000301565b505050620001ad7f22c82707ba960a14c7592ffb6b8cfaa073fed0048a84cc7fa41f6b5bd8e7f2e47f3a6eb71757dfc6e784c1459d26270140c2c147d95ca985c80026fc5301c3eca17f8a7e378434598edc36d108689a030cbc9d7d465de4f74c71bae1028eed6a881b18186200022a60201b60201c565b620002227f3c71d2be5d3784012ea09021b64271ead3c61b707bcb1a7b64ad8ebeb4eb47397f6da5e1284143cdd2d15038a59bde3be031250f00291d64494c12d967b3a4e0c37fc53637662700e6c65104059db8bba34439e0c32483ab7c34e3ccae52c739549518186200022a60201b60201c565b505062000498565b63ffffffff60e01b817bffffffffffffffffffffffffffffffffffffffffffffffffffffffff19160362000295576040517f08c379a00000000000000000000000000000000000000000000000000000000081526004016200028c9062000412565b60405180910390fd5b6001600080837bffffffffffffffffffffffffffffffffffffffffffffffffffffffff19167bffffffffffffffffffffffffffffffffffffffffffffffffffffffff1916815260200190815260200160002060006101000a81548160ff02191690831515021790555050565b8280546200030f9062000463565b90600052602060002090601f0160209004810192826200033357600085556200037f565b82601f106200034e57805160ff19168380011785556200037f565b828001600101855582156200037f579182015b828111156200037e57825182559160200191906001019062000361565b5b5090506200038e919062000392565b5090565b5b80821115620003ad57600081600090555060010162000393565b5090565b600082825260208201905092915050565b7f496e76616c696420496e74657266616365205265717565737400000000000000600082015250565b6000620003fa601983620003b1565b91506200040782620003c2565b602082019050919050565b600060208201905081810360008301526200042d81620003eb565b9050919050565b7f4e487b7100000000000000000000000000000000000000000000000000000000600052602260045260246000fd5b600060028204905060018216806200047c57607f821691505b60208210810362000492576200049162000434565b5b50919050565b6119e780620004a86000396000f3fe608060405234801561001057600080fd5b50600436106100a95760003560e01c80634f6ccce7116100715780634f6ccce7146101665780636352211e1461019657806370a08231146101c657806393ab6e56146101f657806395d89b4114610226578063d85d3d2714610244576100a9565b806301ffc9a7146100ae57806306fdde03146100de57806318160ddd146100fc57806323b872dd1461011a5780632f745c5914610136575b600080fd5b6100c860048036038101906100c39190610ef5565b610260565b6040516100d59190610f3d565b60405180910390f35b6100e66102c7565b6040516100f39190610ff1565b60405180910390f35b610104610359565b604051610111919061102c565b60405180910390f35b610134600480360381019061012f91906110d1565b610366565b005b610150600480360381019061014b9190611124565b610376565b60405161015d919061102c565b60405180910390f35b610180600480360381019061017b9190611164565b610426565b60405161018d919061102c565b60405180910390f35b6101b060048036038101906101ab9190611164565b610497565b6040516101bd91906111a0565b60405180910390f35b6101e060048036038101906101db91906111bb565b610548565b6040516101ed919061102c565b60405180910390f35b610210600480360381019061020b9190611164565b6105ff565b60405161021d9190610ff1565b60405180910390f35b61022e6106ab565b60405161023b9190610ff1565b60405180910390f35b61025e6004803603810190610259919061131d565b61073d565b005b6000806000837bffffffffffffffffffffffffffffffffffffffffffffffffffffffff19167bffffffffffffffffffffffffffffffffffffffffffffffffffffffff1916815260200190815260200160002060009054906101000a900460ff169050919050565b6060600180546102d690611395565b80601f016020809104026020016040519081016040528092919081815260200182805461030290611395565b801561034f5780601f106103245761010080835404028352916020019161034f565b820191906000526020600020905b81548152906001019060200180831161033257829003601f168201915b5050505050905090565b6000600680549050905090565b610371838383610840565b505050565b600061038183610548565b82106103c2576040517f08c379a00000000000000000000000000000000000000000000000000000000081526004016103b990611412565b60405180910390fd5b600860008473ffffffffffffffffffffffffffffffffffffffff1673ffffffffffffffffffffffffffffffffffffffff168152602001908152602001600020828154811061041357610412611432565b5b9060005260206000200154905092915050565b6000610430610359565b8210610471576040517f08c379a0000000000000000000000000000000000000000000000000000000008152600401610468906114ad565b60405180910390fd5b6006828154811061048557610484611432565b5b90600052602060002001549050919050565b6000806003600084815260200190815260200160002060009054906101000a900473ffffffffffffffffffffffffffffffffffffffff169050600073ffffffffffffffffffffffffffffffffffffffff168173ffffffffffffffffffffffffffffffffffffffff160361053f576040517f08c379a00000000000000000000000000000000000000000000000000000000081526004016105369061153f565b60405180910390fd5b80915050919050565b60008073ffffffffffffffffffffffffffffffffffffffff168273ffffffffffffffffffffffffffffffffffffffff16036105b8576040517f08c379a00000000000000000000000000000000000000000000000000000000081526004016105af906115d1565b60405180910390fd5b600460008373ffffffffffffffffffffffffffffffffffffffff1673ffffffffffffffffffffffffffffffffffffffff168152602001908152602001600020549050919050565b600a818154811061060f57600080fd5b90600052602060002001600091509050805461062a90611395565b80601f016020809104026020016040519081016040528092919081815260200182805461065690611395565b80156106a35780601f10610678576101008083540402835291602001916106a3565b820191906000526020600020905b81548152906001019060200180831161068657829003601f168201915b505050505081565b6060600280546106ba90611395565b80601f01602080910402602001604051908101604052809291908181526020018280546106e690611395565b80156107335780601f1061070857610100808354040283529160200191610733565b820191906000526020600020905b81548152906001019060200180831161071657829003601f168201915b5050505050905090565b600b8160405161074d919061162d565b908152602001604051809103902060009054906101000a900460ff16156107a9576040517f08c379a00000000000000000000000000000000000000000000000000000000081526004016107a0906116b6565b60405180910390fd5b600a819080600181540180825580915050600190039060005260206000200160009091909190915090805190602001906107e4929190610de6565b5060006001600a805490506107f99190611705565b90506108053382610a85565b6001600b83604051610817919061162d565b908152602001604051809103902060006101000a81548160ff0219169083151502179055505050565b600073ffffffffffffffffffffffffffffffffffffffff168273ffffffffffffffffffffffffffffffffffffffff16036108af576040517f08c379a00000000000000000000000000000000000000000000000000000000081526004016108a6906117ab565b60405180910390fd5b8273ffffffffffffffffffffffffffffffffffffffff166108cf82610497565b73ffffffffffffffffffffffffffffffffffffffff1614610925576040517f08c379a000000000000000000000000000000000000000000000000000000000815260040161091c9061183d565b60405180910390fd5b6001600460008573ffffffffffffffffffffffffffffffffffffffff1673ffffffffffffffffffffffffffffffffffffffff16815260200190815260200160002060008282546109759190611705565b925050819055506001600460008473ffffffffffffffffffffffffffffffffffffffff1673ffffffffffffffffffffffffffffffffffffffff16815260200190815260200160002060008282546109cc919061185d565b92505081905550816003600083815260200190815260200160002060006101000a81548173ffffffffffffffffffffffffffffffffffffffff021916908373ffffffffffffffffffffffffffffffffffffffff160217905550808273ffffffffffffffffffffffffffffffffffffffff168473ffffffffffffffffffffffffffffffffffffffff167fddf252ad1be2c89b69c2b068fc378daa952ba7f163c4a11628f55a4df523b3ef60405160405180910390a4505050565b610a8f8282610aa6565b610a9881610c67565b610aa28282610cb0565b5050565b600073ffffffffffffffffffffffffffffffffffffffff168273ffffffffffffffffffffffffffffffffffffffff1603610b15576040517f08c379a0000000000000000000000000000000000000000000000000000000008152600401610b0c90611925565b60405180910390fd5b610b1e81610d74565b15610b5e576040517f08c379a0000000000000000000000000000000000000000000000000000000008152600401610b5590611991565b60405180910390fd5b816003600083815260200190815260200160002060006101000a81548173ffffffffffffffffffffffffffffffffffffffff021916908373ffffffffffffffffffffffffffffffffffffffff1602179055506001600460008473ffffffffffffffffffffffffffffffffffffffff1673ffffffffffffffffffffffffffffffffffffffff1681526020019081526020016000206000828254610c00919061185d565b92505081905550808273ffffffffffffffffffffffffffffffffffffffff16600073ffffffffffffffffffffffffffffffffffffffff167fddf252ad1be2c89b69c2b068fc378daa952ba7f163c4a11628f55a4df523b3ef60405160405180910390a45050565b6006805490506007600083815260200190815260200160002081905550600681908060018154018082558091505060019003906000526020600020016000909190919091505550565b600860008373ffffffffffffffffffffffffffffffffffffffff1673ffffffffffffffffffffffffffffffffffffffff168152602001908152602001600020805490506009600083815260200190815260200160002081905550600860008373ffffffffffffffffffffffffffffffffffffffff1673ffffffffffffffffffffffffffffffffffffffff1681526020019081526020016000208190806001815401808255809150506001900390600052602060002001600090919091909150555050565b6000806003600084815260200190815260200160002060009054906101000a900473ffffffffffffffffffffffffffffffffffffffff169050600073ffffffffffffffffffffffffffffffffffffffff168173ffffffffffffffffffffffffffffffffffffffff161415915050919050565b828054610df290611395565b90600052602060002090601f016020900481019282610e145760008555610e5b565b82601f10610e2d57805160ff1916838001178555610e5b565b82800160010185558215610e5b579182015b82811115610e5a578251825591602001919060010190610e3f565b5b509050610e689190610e6c565b5090565b5b80821115610e85576000816000905550600101610e6d565b5090565b6000604051905090565b600080fd5b600080fd5b60007fffffffff0000000000000000000000000000000000000000000000000000000082169050919050565b610ed281610e9d565b8114610edd57600080fd5b50565b600081359050610eef81610ec9565b92915050565b600060208284031215610f0b57610f0a610e93565b5b6000610f1984828501610ee0565b91505092915050565b60008115159050919050565b610f3781610f22565b82525050565b6000602082019050610f526000830184610f2e565b92915050565b600081519050919050565b600082825260208201905092915050565b60005b83811015610f92578082015181840152602081019050610f77565b83811115610fa1576000848401525b50505050565b6000601f19601f8301169050919050565b6000610fc382610f58565b610fcd8185610f63565b9350610fdd818560208601610f74565b610fe681610fa7565b840191505092915050565b6000602082019050818103600083015261100b8184610fb8565b905092915050565b6000819050919050565b61102681611013565b82525050565b6000602082019050611041600083018461101d565b92915050565b600073ffffffffffffffffffffffffffffffffffffffff82169050919050565b600061107282611047565b9050919050565b61108281611067565b811461108d57600080fd5b50565b60008135905061109f81611079565b92915050565b6110ae81611013565b81146110b957600080fd5b50565b6000813590506110cb816110a5565b92915050565b6000806000606084860312156110ea576110e9610e93565b5b60006110f886828701611090565b935050602061110986828701611090565b925050604061111a868287016110bc565b9150509250925092565b6000806040838503121561113b5761113a610e93565b5b600061114985828601611090565b925050602061115a858286016110bc565b9150509250929050565b60006020828403121561117a57611179610e93565b5b6000611188848285016110bc565b91505092915050565b61119a81611067565b82525050565b60006020820190506111b56000830184611191565b92915050565b6000602082840312156111d1576111d0610e93565b5b60006111df84828501611090565b91505092915050565b600080fd5b600080fd5b7f4e487b7100000000000000000000000000000000000000000000000000000000600052604160045260246000fd5b61122a82610fa7565b810181811067ffffffffffffffff82111715611249576112486111f2565b5b80604052505050565b600061125c610e89565b90506112688282611221565b919050565b600067ffffffffffffffff821115611288576112876111f2565b5b61129182610fa7565b9050602081019050919050565b82818337600083830152505050565b60006112c06112bb8461126d565b611252565b9050828152602081018484840111156112dc576112db6111ed565b5b6112e784828561129e565b509392505050565b600082601f830112611304576113036111e8565b5b81356113148482602086016112ad565b91505092915050565b60006020828403121561133357611332610e93565b5b600082013567ffffffffffffffff81111561135157611350610e98565b5b61135d848285016112ef565b91505092915050565b7f4e487b7100000000000000000000000000000000000000000000000000000000600052602260045260246000fd5b600060028204905060018216806113ad57607f821691505b6020821081036113c0576113bf611366565b5b50919050565b7f6f776e657220696e646578206973206f7574206f6620626f756e647300000000600082015250565b60006113fc601c83610f63565b9150611407826113c6565b602082019050919050565b6000602082019050818103600083015261142b816113ef565b9050919050565b7f4e487b7100000000000000000000000000000000000000000000000000000000600052603260045260246000fd5b7f676c6f62616c20696e646578206973206f7574206f6620626f756e6473000000600082015250565b6000611497601d83610f63565b91506114a282611461565b602082019050919050565b600060208201905081810360008301526114c68161148a565b9050919050565b7f6f776e657220717565727920666f72206e6f6e206578697374656e7420746f6b60008201527f656e000000000000000000000000000000000000000000000000000000000000602082015250565b6000611529602283610f63565b9150611534826114cd565b604082019050919050565b600060208201905081810360008301526115588161151c565b9050919050565b7f6f776e657220717565727920666f72206e6f6e2d6578697374656e7420746f6b60008201527f656e000000000000000000000000000000000000000000000000000000000000602082015250565b60006115bb602283610f63565b91506115c68261155f565b604082019050919050565b600060208201905081810360008301526115ea816115ae565b9050919050565b600081905092915050565b600061160782610f58565b61161181856115f1565b9350611621818560208601610f74565b80840191505092915050565b600061163982846115fc565b915081905092915050565b7f4572726f722d204b727970746f426972647a20616c726561647920657869737460008201527f7300000000000000000000000000000000000000000000000000000000000000602082015250565b60006116a0602183610f63565b91506116ab82611644565b604082019050919050565b600060208201905081810360008301526116cf81611693565b9050919050565b7f4e487b7100000000000000000000000000000000000000000000000000000000600052601160045260246000fd5b600061171082611013565b915061171b83611013565b92508282101561172e5761172d6116d6565b5b828203905092915050565b7f4572726f722d20455243373231205472616e7366657220746f20746865207a6560008201527f726f206164647265737300000000000000000000000000000000000000000000602082015250565b6000611795602a83610f63565b91506117a082611739565b604082019050919050565b600060208201905081810360008301526117c481611788565b9050919050565b7f547279696e6720746f207472616e73666572206120746f6b656e20746861742060008201527f646f6573206e6f74206578697374730000000000000000000000000000000000602082015250565b6000611827602f83610f63565b9150611832826117cb565b604082019050919050565b600060208201905081810360008301526118568161181a565b9050919050565b600061186882611013565b915061187383611013565b9250827fffffffffffffffffffffffffffffffffffffffffffffffffffffffffffffffff038211156118a8576118a76116d6565b5b828201905092915050565b7f4552433732313a206d696e74696e6720746f20746865207a65726f206164647260008201527f6573730000000000000000000000000000000000000000000000000000000000602082015250565b600061190f602383610f63565b915061191a826118b3565b604082019050919050565b6000602082019050818103600083015261193e81611902565b9050919050565b7f45524332313a20746f6b656e20616c7265616479206d696e7465640000000000600082015250565b600061197b601b83610f63565b915061198682611945565b602082019050919050565b600060208201905081810360008301526119aa8161196e565b905091905056fea26469706673582212203db43c2aeb3f33cd004f634a72de960af6bdcd8d8a333290390d936366dfc4e464736f6c634300080d0033",
  "immutableReferences": {},
  "source": "// SPDX-License-Identifier: MIT\npragma solidity ^0.8.0;\n\nimport \"./ERC721Connector.sol\";\n\ncontract KryptoBird is ERC721Connector{\n\n    string[] public kryptoBirdz;\n\n    mapping(string => bool) _kryptoBirdzExists;\n\n    function mint(string memory _kryptoBird) public {\n        require(!_kryptoBirdzExists[_kryptoBird], \"Error- KryptoBirdz already exists\");\n        kryptoBirdz.push(_kryptoBird);\n        uint _id = kryptoBirdz.length - 1;\n        _mint(msg.sender, _id);\n\n        _kryptoBirdzExists[_kryptoBird] = true;\n\n    }\n\n    constructor() ERC721Connector(\"KrybtoBird\", \"KBIRDZ\"){\n\n    }\n}",
  "sourcePath": "/home/unthinkable-lap-0316/Desktop/nft-marketplace-starter-kit-main/src/contracts/KryptoBirdz.sol",
  "compiler": {
    "name": "solc",
    "version": "0.8.13+commit.abaa5c0e.Emscripten.clang"
  },
  "schemaVersion": "3.4.6",
  "updatedAt": "2022-04-05T10:43:26.201Z",
  "networkType": "ethereum",
  "devdoc": {
    "kind": "dev",
    "methods": {
      "balanceOf(address)": {
        "details": "NFTs assigned to the zero address are considered invalid, and this  function throws for queries about the zero address.",
        "params": {
          "_owner": "An address for whom to query the balance"
        },
        "returns": {
          "_0": "The number of NFTs owned by `_owner`, possibly zero"
        }
      },
      "ownerOf(uint256)": {
        "details": "NFTs assigned to zero address are considered invalid, and queries  about them do throw.",
        "params": {
          "_tokenId": "The identifier for an NFT"
        },
        "returns": {
          "_0": "The address of the owner of the NFT"
        }
      },
      "transferFrom(address,address,uint256)": {
        "details": "Throws unless `msg.sender` is the current owner, an authorized  operator, or the approved address for this NFT. Throws if `_from` is  not the current owner. Throws if `_to` is the zero address. Throws if  `_tokenId` is not a valid NFT.",
        "params": {
          "_from": "The current owner of the NFT",
          "_to": "The new owner",
          "_tokenId": "The NFT to transfer"
        }
      }
    },
    "version": 1
  },
  "userdoc": {
    "kind": "user",
    "methods": {
      "balanceOf(address)": {
        "notice": "Count all NFTs assigned to an owner"
      },
      "ownerOf(uint256)": {
        "notice": "Find the owner of an NFT"
      },
      "transferFrom(address,address,uint256)": {
        "notice": "Transfer ownership of an NFT -- THE CALLER IS RESPONSIBLE  TO CONFIRM THAT `_to` IS CAPABLE OF RECEIVING NFTS OR ELSE  THEY MAY BE PERMANENTLY LOST"
      }
    },
    "version": 1
  }
}